:100000000C94C9010C94E6010C94E6010C94E601F1
:100010000C943D0A0C94E6010C94E6010C94C30A7E
:100020000C94E6010C94E6010C94E6010C94E601B4
:100030000C94E6010C94E6010C9455090C94E6012D
:100040000C94E6010C94E6010C9401080C942F0822
:100050000C94E6010C94E6010C94E6010C94E60184
:100060000C94E6010C94E6016E616E00696E660008
:100070006364696E6F70737578585B656667454633
:100080004700616E006E66696E69747900CDCCCCF4
:100090003D0AD7233C17B7D13877CC2B329595E65C
:1000A000241FB14F0A000020410000C84200401C3C
:1000B0004620BCBE4CCA1B0E5AAEC59D7400000043
:1000C000000000005F00000003000300143E143E27
:1000D00014242A7F2A124333086661364955225078
:1000E0000005030000001C2241000041221C0014F6
:1000F000083E081408083E080800503000000808B0
:10010000080808006060000020100804023E514901
:10011000453E0004027F004261514946224149495F
:10012000361814127F1027454545393E4949493252
:1001300001016119073649494936264949493E00B6
:100140003636000000563600000814224100141410
:10015000141414004122140802015109063E4159A9
:10016000555E7E1111117E7F494949363E4141411C
:10017000227F4141413E7F494949417F09090901A7
:100180003E414949327F0808087F00417F410030E5
:100190004040403F7F081422417F404040407F0262
:1001A00004027F7F0618607F3E4141413E7F09097E
:1001B00009061E2121215E7F091929462649494940
:1001C0003201017F01013F4040403F1F2040201F7E
:1001D0007F2010207F6314081463070870080761EC
:1001E00051494543007F41000002040810200000EF
:1001F000417F0004020102044040404040000102EF
:10020000040020545454787F4444443838444444CF
:1002100044384444447F385454541804047E05053B
:10022000085454543C7F0404047800447D4000206A
:1002300040443D007F1010284400417F40007C0472
:100240007C04787C0404047838444444387C1414D6
:100250001408081414147C04780404080854545432
:1002600020043F4420003C40403C400418601804F7
:100270003C4030403C44281028440C5050503C44F2
:1002800064544C44000836414100007F0000414165
:10029000360800020102040200407A10F35A00A05E
:1002A000724E18090010A5D4E80000E8764817003F
:1002B00000E40B54020000CA9A3B000000E1F5057F
:1002C000000080969800000040420F000000A086C9
:1002D00001000000102700000000E80300000000FB
:1002E0006400000000000A0000000000010000009F
:1002F00000002C76D888DC674F0823DFC1DFAE59B9
:10030000E1B1B796E5E3E453C63AE651997696E84B
:10031000E6C28426EB898C9B62ED407C6FFCEFBCCF
:100320009C9F40F2BAA56FA5F490055A2AF75C93FA
:100330006B6CF9676DC11BFCE0E40D47FEF520E630
:10034000B500D0ED902E0300943577050080841E13
:10035000080000204E0A000000C80C333333330F6E
:10036000986E12831141EF8D2114893BE65516CF0B
:10037000FEE6DB18D1844B381BF77C1D901DA4BB17
:10038000E424203284725E228100C9F124ECA1E5CC
:100390003D2711241FBECFEFD8E0DEBFCDBF11E057
:1003A000A0E0B1E0E4EEF2E302C005900D92A430CB
:1003B000B107D9F713E0A4E0B1E001C01D92A83A5B
:1003C000B107E1F70E949B0D0C9470190C9400008A
:1003D0008FE99DE090939B0380939A0380E4809340
:1003E00066000000E6EBF0E080818062808381E0BF
:1003F0008093B10008951092B2008091B6008A7186
:10040000E1F720E030E02F5F3F4F8091B20084366B
:10041000D0F3C90108951F9310E80E94FB012091B9
:100420009A0330919B032817390728F4209166001E
:10043000215020936600000020919A0330919B0385
:100440008217930728F4209166002F5F209366009F
:10045000000020919A0330919B038217930709F4BF
:1004600011E01150D1F61F9108950E94E80180E239
:100470008093980310929D0310929C030E940B029C
:1004800080916600089520919A0330919B0328176C
:10049000390748F48FEF809397038091660090911D
:1004A0009803891B0BC08217930760F481E0809347
:1004B00097038091660090919803890F809366005E
:1004C000000006C081E090E090939D0380939C0320
:1004D00080919803869580939803089580919E0358
:1004E0008F5F80939E03843059F48091A0038093A2
:1004F000660081E090E090939D0380939C030895B3
:100500008091660090919703890F809366000000A8
:10051000089520E030E006C042E04A95F1F700C0BF
:100520002F5F3F4F28173907BCF3089520E030E0D4
:1005300008C0EFECF7E03197F1F700C000002F5F43
:100540003F4F28173907ACF3089540E021E030E031
:1005500009C0F901E89F9001E99F300DF89F300D27
:1005600011244F5F4617A8F3C9010895FF920F9316
:100570001F93FC01DA0180818823A9F170E0062F26
:1005800001502FC02191203309F1332727FD3095E9
:1005900020533040F02EF71A10E081E090E00CC0BC
:1005A000AC01440F551F880F991F880F991F880FA2
:1005B000991F840F951F1F5F1F1590F3829FA00145
:1005C000839F500D929F500D112402C040E050E0D7
:1005D0008D919C911197840F951F11969C938E93EA
:1005E0007F5F761778F21F910F91FF90089580FF3B
:1005F00002C05A9801C05A9A81FF02C05D980895BE
:100600005D9A089580E00E94F702089509C05B9802
:10061000962F982311F05C9A01C05C985B9A6695BE
:100620006623A9F70895549823E030E080E041E084
:1006300050E05998599A4C9B08C0BA01022E02C04A
:10064000660F771F0A94E2F7862B215030409FEF08
:100650002F3F390771F7549A08951F93162F0E9460
:10066000F70284E064E00E940603812F60E80E94A4
:10067000060380E061E00E9406030E9402031F91CE
:1006800008951F93DF93CF930F92CDB7DEB7162F48
:1006900049830E94F70285E064E00E940603812FEF
:1006A00060E40E9406034981842F68E00E940603EB
:1006B0000E9402030F90CF91DF911F910895CF9276
:1006C000DF92FF920F931F93DF93CF930F92CDB7DB
:1006D000DEB7162F042FF22E59830E94F70285E011
:1006E00064E00E940603812F60E40E9406035981A2
:1006F000402F6A0106C0F60181916F0168E00E94F7
:1007000006038C2D801B8F15B0F30E9402030F90FF
:10071000CF91DF911F910F91FF90DF90CF900895BF
:100720001F93DF93CF930F92CDB7DEB7162F0E94A2
:10073000F70286E064E00E940603812F60E40E94D5
:1007400006030E94130389830E94020389810F908C
:10075000CF91DF911F9108951F93DF93CF930F9255
:10076000CDB7DEB7162F49830E94F70286E064E01A
:100770000E940603812F60E40E9406030E94130377
:10078000182F4981842F68E00E9406030E9402030B
:10079000812F0F90CF91DF911F9108952091040137
:1007A000309105012F5F3F4FC901089580E190E02E
:1007B00008950F931F93082F162FF90190E02091B1
:1007C0000401309105012817390740F4442329F02A
:1007D000B9010E94F916082F01C0022F103158F0FC
:1007E000442341F0812F90E06FE070E00E94F91601
:1007F000182F01C01FE0912F96959695802F880F96
:10080000890F80830F71000F090F0183137028E097
:1008100030E002C0359527951A95E2F722831F91A3
:100820000F9108951F93DF93CF9300D00F92CDB710
:10083000DEB7142FE0910101F09102013097B9F079
:10084000422F9E012F5F3F4F0E94D903898190E084
:10085000FC01EA5FFE4F30812B81112311F0232B25
:1008600002C0209523238A5F9E4FFC0120830F90B6
:100870000F900F90CF91DF911F910895FF920F93EA
:100880001F93DF93CF9300D00F92CDB7DEB78A01CD
:10089000F22E40E09E012F5F3F4F0E94D903E98175
:1008A000F0E0EA5FFE4F2F2D30E0220F331F80E093
:1008B00090E014C0AC0156954795D801A40FB11D26
:1008C0004C9150E0682F6170660F660F02C055951D
:1008D00047956A95E2F74F70419301968217930707
:1008E00048F30F900F900F90CF91DF911F910F91D0
:1008F000FF900895982F9156963010F487550895DB
:10090000982F9154963010F48753089580538A306D
:1009100008F080E008956F927F928F929F92AF923D
:10092000BF92CF92DF92EF92FF920F93DF93CF931C
:1009300000D000D0CDB7DEB7C42E822E40E09E019D
:100940002F5F3F4F5C830E94D903298130E0B901BA
:100950006A5F7E4F80918601909187013C01621A07
:10096000730A282D30E05C818217930708F4882EE3
:100970007B01AC2CB52ECC24DD2499241DC0C614DB
:10098000D704E8F4013049F4F50180810E947A042B
:10099000F7019081982B908306C0F50180810E9419
:1009A0007A04F70180830894C11CD11C0894E11CCF
:1009B000F11C0894A11CB11CC814D90400F30F90B9
:1009C0000F900F900F90CF91DF910F91FF90EF90CC
:1009D000DF90CF90BF90AF909F908F907F906F905F
:1009E0000895EF92FF920F931F93DF93CF9300D060
:1009F0000F92CDB7DEB7F82EE42E422F9E012F5F67
:100A00003F4F0E94D903009101011091020101158D
:100A1000110531F0E981F0E0EA5FFE4F80810FC0FF
:100A20008F2D82958695877021E030E0922F01C04E
:100A3000990F8A95EAF7892F6A810E9490034B816A
:100A4000EE2011F0482B02C04095482301151105F6
:100A500029F0E981F0E0EA5FFE4F4083F294F694DA
:100A6000E7E0FE2281E090E001C0880FFA94EAF707
:100A70006A810E9441030F900F900F90CF91DF91F8
:100A80001F910F91FF90EF90089520918601309172
:100A9000870140E00BC0FC01EA5FFE4F9081892F87
:100AA0008295807F9F70892B80834F5F842F90E099
:100AB0008217930780F3089581E060E046E051E0FB
:100AC00020E40E945F030895209186013091870100
:100AD00040E007C0FC01EA5FFE4F8081807F808399
:100AE0004F5F842F90E082179307A0F30895EF9251
:100AF000FF920F931F93E82EF62E042F10E006C0EE
:100B00008E2D612F4F2D0E9441031F5FE12FF0E0DA
:100B10002091880130918901E217F30788F38091D1
:100B2000010190910201009721F0002311F40E942D
:100B300064051F910F91FF90EF9008951F93CF933D
:100B4000DF9383E060E041E00E9477050E94450565
:100B500010E0C1E0D0E016C0609188017091890179
:100B6000C9010E94F916462F682FCE0102C0880FD6
:100B7000991F4A95E2F72A5F3E4FF90140810E9492
:100B800041031F5F212F30E0809186019091870102
:100B90002817390708F3DF91CF911F91089583E05B
:100BA00060E040E00E9477050895982F80918A01C7
:100BB000882309F044C0992331F081E090E09093BC
:100BC000020180930101529A559A539A549A83E0F4
:100BD0000E94F70283E060E00E942D0383E060E260
:100BE0000E942D0383E064E10E942D0383E068E10D
:100BF0000E942D0383E061E00E942D0383E063E007
:100C00000E942D0383E060EA0E942D0383E06FEAD7
:100C10000E942D0380E490E09093890180938801E5
:100C20002FE130E030930501209304019093870178
:100C3000809386010E94CF0581E080938A01089508
:100C4000E62FE695E695880FE80FF0E0EA5FFE4FA5
:100C5000637080E890E002C0959587956A95E2F709
:100C60002081282381E009F480E00895FF920F930A
:100C70001F93DF93CF9300D00F92CDB7DEB7182F1D
:100C8000042FF22E40E09E012F5F3F4F0E94D903B8
:100C9000FF2081F0812F82958695877021E030E0DA
:100CA000922F01C0990F8A95EAF7892F6A8140E057
:100CB0000E94410312951695177081E090E001C0E3
:100CC000880F1A95EAF76A81402F0E9441030F901E
:100CD0000F900F90CF91DF911F910F91FF9008958A
:100CE000982F91549A3118F090529A3110F48F71D4
:100CF0000895982F90539A3010F4855108958032BA
:100D000009F480E00895653008F060E0E5E08E9F2A
:100D1000F0011124E05AF040E60FF11DE354FF4FBB
:100D200084910895BF92CF92DF92EF92FF920F933A
:100D30001F93CF93DF93E82EB62EC42EFF248C2D65
:100D40006F2D0E948306DB2CC0E0D0E0082F10E05E
:100D500098010C2E02C0359527950A94E2F720FFE2
:100D600004C08E2D6D2D41E003C08E2D6D2D40E011
:100D700020E00E94F1042196D394C730D10541F7B9
:100D8000F394E3949F2D9530D1F6DF91CF911F918D
:100D90000F91FF90EF90DF90CF90BF9008950F9349
:100DA0001F93CF93DF93182F062FEA0105C0812FE1
:100DB000602F0E9492061A5F49914423C1F7DF9188
:100DC000CF911F910F910895CF92DF92EF92FF92F2
:100DD0000F931F93CF93DF93E82EC62ED42EF22EBF
:100DE0001EC08D2D6F2D0E948306C0E0D0E0082F1D
:100DF00010E0CE018C0D682FF8010C2E02C0F59585
:100E0000E7950A94E2F74E2F41708E2D20E00E9464
:100E100012042196C730D10561F7F394E3949F2D16
:100E20009530F8F2DF91CF911F910F91FF90EF90E5
:100E3000DF90CF9008952F923F924F925F926F92E2
:100E40007F928F929F92AF92BF92CF92DF92EF925A
:100E5000FF920F931F93DF93CF93CDB7DEB72C97FD
:100E60000FB6F894DEBF0FBECDBF98878F8349873A
:100E7000809104018F5F862E9924C82EDD24C7FC43
:100E8000D0948401000F111F080D191D000F111FB0
:100E90000C0D1D1D66E00E94EC16282F332727FD40
:100EA00030953E832D83662477246C187D08EE24CC
:100EB000FF24F6E04F2E512C580184C0C701CE14F8
:100EC000DF040CF4C6018601081B190B930177FEA1
:100ED00002C020E030E0C901B2010E940D17FB0101
:100EE000C701B2010E940D178D819E818617970759
:100EF0000CF4BC016F5F7F4FD401AE1BBF0BBA83F4
:100F0000A9836A177B0714F47A836983C901B20144
:100F10000E940D171C012F8138852E0F3F1F3C8327
:100F20002B830E94CF0540E050E0322DB2016219C0
:100F300073091B015C874B872BC04A30B9F1809144
:100F40000401909105018017910780F18B859C85A4
:100F5000881599055CF5802FAB85BC85109711F439
:100F6000232F01C020E061E03A870E94E4063A8521
:100F7000EB85FC85309711F4C10102C086E090E05A
:100F8000080F191F6B857C856F5F7F4F7C876B8790
:100F9000AB81BC814D91BC83AB83442339F0EB859D
:100FA000FC8569817A81E617F7073CF20E949E056D
:100FB000898590E00E9496020894E11CF11C089437
:100FC000611C711CEA14FB040CF478CF0E94CF055D
:100FD0002C960FB6F894DEBF0FBECDBFCF91DF9138
:100FE0001F910F91FF90EF90DF90CF90BF90AF9047
:100FF0009F908F907F906F905F904F903F902F9039
:1010000008951F920F920FB60F9211242F938F9372
:101010009F93EF93FF939091C0008091C600E09161
:101020008C01EF5FEF7720918B01E21741F098710F
:10103000E0938C01F0E0E15FFD4F808301C092E01E
:1010400080918F02892B80938F02FF91EF919F9166
:101050008F912F910F900FBE0F901F9018951F9298
:101060000F920FB60F9211248F939F93EF93FF93DC
:1010700090918D0180918E01981769F0E0918E0119
:10108000EF5FEF77E0938E01F0E0E157FE4F808154
:101090008093C60005C08091C1008F7D8093C10000
:1010A000FF91EF919F918F910F900FBE0F901F9026
:1010B000189510928D0110928E0110928C01109251
:1010C0008B0197FF04C022E02093C0009F7790938C
:1010D000C5008093C40088E98093C10086E08093B6
:1010E000C200089590918C0180918B01981781F036
:1010F000E0918B01EF5FEF77E0938B01F0E0E15F30
:10110000FD4F208180918F0210928F0230E002C04B
:1011100020E031E0C901089590918D019F5F9F7794
:1011200020918E019217E1F3E92FF0E0E157FE4F95
:10113000808390938D018091C10080628093C10073
:101140000895EF92FF92CF93DF93E82EE7017E019F
:10115000F92EE70102C00E948C0889918823D9F7F3
:10116000DF91CF91FF90EF900895CF93DF93EC0143
:1011700002C00E948C08FE01219684918823C9F741
:10118000DF91CF91089580918C0120918B0190E0A7
:1011900081589F4F821B91096FE770E00E940D17E5
:1011A000089580918B0180938C0108958A3010F40A
:1011B00090E301C097E3890F0E948C0808951F9364
:1011C000182F82958F700E94D608812F8F700E94F1
:1011D000D6081F9108951F93182F892F0E94DF08AA
:1011E000812F0E94DF081F9108950E94B50808957D
:1011F000EF92FF921F93DF93CF930F92CDB7DEB79D
:101200007C0110E01FC069830E947208698190FF11
:1012100003C01123B9F41FC094FD20C0AC0140707D
:101220005C7041155105D1F4282F8D3079F08A304A
:1012300069F0882359F020522F3520F4F70181936B
:101240007F011F5F1617F8F20E94D108F701108284
:10125000212F30E005C020E030E002C02FEF3FEF4B
:10126000C9010F90CF91DF911F91FF90EF900895EA
:10127000FC01623040F080818A3329F48181843618
:1012800021F0843721F080E0089581E0089582E024
:10129000089582E084BD95E095BD80936E0085BB86
:1012A0008FEF87BD089515BC08951F920F920FB65A
:1012B0000F9211242F933F934F935F936F937F93DC
:1012C0008F939F93AF93BF93EF93FF93789488B1DD
:1012D00090E1892788B90E945C05FF91EF91BF9149
:1012E000AF919F918F917F916F915F914F913F91BE
:1012F0002F910F900FBE0F901F90189582E0809352
:10130000B00097E09093B1008093700087BB8FE1AD
:101310008093B30080E28093B6000895E8E6F0E0A1
:10132000808182608083ECE6F0E08081836080834E
:101330003998419A3898409A0895569A08950F938B
:101340001F93CF93DF938C0184E6689F9001112453
:10135000C80162E370E00E94F916C9010E94F91603
:10136000EB0109C05E9AC8010E9489025E98C8011B
:101370000E94890221972097A9F7DF91CF911F91B1
:101380000F910895882329F48091A3038F5F8093A0
:10139000A3038091A3038C3338F01092A3038091B0
:1013A000A5038F5F8093A5038091A5038C3338F04C
:1013B0001092A5038091A6038F5F8093A60380916E
:1013C000A603883108F458C01092A6038091A203A6
:1013D0008F5F8093A2038091A203803201F18091FC
:1013E000A2038F3121F48091A7038F30C1F0809147
:1013F000A2038E3141F48091A703823021F48091C1
:10140000A403882361F48091A2038D31A9F5809112
:10141000A703823089F58091A403882369F591E0C0
:101420009093A2038091A7038F5F8093A70380917D
:10143000A7038D3009F59093A7038091A1038F5FD7
:101440008093A1038091A10390E060E971E00E9484
:101450000D17009759F08091A103837059F4809182
:10146000A10364E60E94E016992321F081E08093B5
:10147000A40308951092A40308951F920F920FB62B
:101480000F9211242F933F934F935F936F937F930A
:101490008F939F93AF93BF93EF93FF93309947C080
:1014A000809193029091940201969093940280937C
:1014B00093028091910281FD55C08FE697E10197DB
:1014C000F1F700C0000030994DC080919102826018
:1014D000809391028091A5038F5F8093A50381E0A3
:1014E0000E94C20983E593E062E00E949F091CC04C
:1014F000809193029091940201969093940280932C
:10150000930280919302909194022AEA813092078B
:1015100058F08091910284608093910288E392E078
:1015200062E00E949F091EC0309BE2CF1BC0319930
:1015300010C08FE697E10197F1F700C000003199E4
:1015400011C09091920281E0911180E0809392020B
:1015500009C0109294021092930280919102897FA7
:1015600080939102FF91EF91BF91AF919F918F91E5
:101570007F916F915F914F913F912F910F900FBE8F
:101580000F901F9018951F920F920FB60F92112473
:101590002F933F934F935F936F937F938F939F937B
:1015A000AF93BF93EF93FF9380E00E94C209FF9136
:1015B000EF91BF91AF919F918F917F916F915F91CB
:1015C0004F913F912F910F900FBE0F901F90189544
:1015D000FC018091A6032AE0622F0E94E016805D44
:1015E00080838091A6030E94E016905D9183809194
:1015F000A5030E94E016805D82838091A5030E946E
:10160000E016905D93838091A3030E94E016805DB5
:1016100084838091A3030E94E016905D95831682D7
:1016200008954091A60342954F708CE161E021E05E
:101630000E9436064091A6038CE165E021E00E94FD
:1016400036064091A50342954F708DE161E021E09F
:101650000E9436064091A5038DE165E021E00E94DD
:1016600036064091A30342954F708EE161E021E080
:101670000E9436064091A3038EE165E021E00E94BE
:1016800036060895CF93DF93EC010E94CF0580E0EA
:1016900061E048810E94920686E061E049810E94F3
:1016A00092068CE063E041E020E00E94F1048CE0CF
:1016B00065E041E020E00E94F1048EE061E04A81B3
:1016C0000E94920684E161E04B810E949206109292
:1016D0009603DF91CF9108951F93CF93DF93EC0191
:1016E0000E94CF0580E060E048810E94920685E07C
:1016F00060E049810E9492068BE060E04A810E948E
:10170000920680E160E04B810E94920686E160E0F3
:101710004C810E9492068BE160E04D810E9492060E
:101720001091A3031F71812F67E041E020E00E9428
:1017300012048091950367E040E020E00E941204CB
:101740000E949E0510939503DF91CF911F910895FC
:101750002F923F925F926F927F928F929F92AF9261
:10176000BF92CF92DF92EF92FF920F931F93DF937E
:10177000CF9300D000D0CDB7DEB70E94CE031C01BE
:101780000E94D6039A8389830E94CF058FE069E087
:1017900041E020E00E94F10481E16AE041E020E0C4
:1017A0000E94F1048EE06BE041E020E00E94F10431
:1017B0008FE06BE041E020E00E94F10482E16BE009
:1017C00041E020E00E94F10483E16BE041E020E091
:1017D0000E94F10484E16BE041E020E00E94F1040A
:1017E0008091A30364E10E94E016892F6AE041E042
:1017F00020E00E94F1048091A30361E10E94E016C1
:10180000892F69E041E020E00E94F1048FEF97E822
:10181000A3E181509040A040E1F700C000000E9489
:101820004505A4E6B0E0BC83AB8371C0FD2CF39406
:10183000812F6F2D0E942006682ECD2CCA94812FF7
:101840006C2D0E942006582E802F6D2D0E942006A0
:10185000782E802F6F2D0E942006882E802F6C2DD1
:101860000E942006982E8E2D6D2D0E942006A82EF7
:101870008E2D6F2D0E942006B82E8E2D6C2D0E946D
:101880002006952D960D970D980D990D9A0D9B0D8F
:10189000980F923021F0933041F040E007C0812F43
:1018A0006D2D0E942006482F01C041E0812F6D2D33
:1018B00020E00E94F104DF2C8D2D90E0E981FA8177
:1018C0008E179F0708F4B2CF102F812F90E082155A
:1018D000930538F4DD24D394012F0F5FE12EEA94B1
:1018E000EBCF80919202882319F40E94CF051AC091
:1018F0000E9445058FE39CE90197F1F700C00000C5
:10190000AB81BC811197BC83AB83109711F011E0C0
:10191000DCCF8FEF99E6A8E181509040A040E1F73D
:1019200000C000000F900F900F900F90CF91DF91AB
:101930001F910F91FF90EF90DF90CF90BF90AF90ED
:101940009F908F907F906F905F903F902F90089521
:10195000FF920F931F93009192020E94CE030E9468
:10196000D6030E94CF050E94490901C0012F1091A2
:101970009202101709F041C086E992E06FEF0E94D1
:10198000F8089C01009791F397FD36C0809196026C
:10199000813791F1873719F40E946405E7CF8037CA
:1019A00009F52630310514F3F0909902109299024E
:1019B00087E992E00E945717082FF0929902F09061
:1019C0009B0210929B0289E992E00E945717682FB0
:1019D00041E08F2D813309F040E0802F21E00E940B
:1019E0001204C4CF80E060E046E952E000E00E94CB
:1019F0008B0410919202BACF15BC1F910F91FF90EA
:101A000008950F931F93DF93CF9300D000D0CDB7ED
:101A1000DEB78C0119821A821B821C8288E392E055
:101A20006AE00E949F098FE19EE40197F1F700C0F0
:101A300000008AEF91E06AE00E949F098FE19EE436
:101A40000197F1F700C00000D8011296FE0131960F
:101A5000CE01059631E02D9120532A3010F42083D9
:101A600001C030E03196E817F907A9F7332329F1CF
:101A70008AEF91E065E00E949F098FE99FE001975E
:101A8000F1F700C0000089EA91E065E00E949F093B
:101A90009981990F892F880F880F890F9A81890F53
:101AA0008093A6039B81990F892F880F880F890F38
:101AB0009C81890F8093A50310C08DE792E064E1BB
:101AC0000E949F098FE097E20197F1F700C00000A4
:101AD0008DE792E064E10E949F090F900F900F90B4
:101AE0000F90CF91DF911F910F9108951F93CF9386
:101AF000DF93EC01162F88E392E064E00E949F09D7
:101B00008FE097E20197F1F700C00000CE01612F4E
:101B100048E20E941B07DF91CF911F91089583B780
:101B2000816083BF889583B78E7F83BF8091900249
:101B30008093B4000895DF92EF92FF920F931F936A
:101B4000DF93CF93CDB7DEB760970FB6F894DEBFC3
:101B50000FBECDBFF090A303D090A5030E94350225
:101B60000E947E090E948E090E949D0981E00E94C8
:101B7000D50583E390E00E945908789485E061E000
:101B80004CE40E9492068BE061E045E40E949206DC
:101B900081E161E044E40E94920687E161E049E46A
:101BA0000E94920688E893E10E9496028E010F5FE0
:101BB0001F4FC8010E94E80AC8010E94420B88E337
:101BC00092E064E00E949F098FE097E20197F1F7AD
:101BD00000C0000088E392E064E00E949F098FE16A
:101BE0009EE40197F1F700C00000E02E012F86E986
:101BF00092E06FEF0E94F808182F882309F186E918
:101C000092E0612F0E94380980939502809195029D
:101C1000813049F0823051F486E992E0612F70E022
:101C20000E94010D09C00E94A80C06C086E992E03E
:101C3000612F70E00E94760D15BCD090A503DA9458
:101C400080919202813051F40E94A80B8E2D902F2A
:101C50000E94E80A8E2D902F0E94420B8091A303D0
:101C6000F81621F48091910281FF12C0F090A30335
:101C70008091A503D81651F0D090A5038E2D902FFA
:101C80000E94E80A8E2D902F0E94420B0E94110B99
:101C90008091910282FFABCF18C08091A5038F5F26
:101CA0008093A50381E00E94C2098E2D902F0E948F
:101CB000E80A8E2D902F0E94420BD090A5038FE34F
:101CC0009CE90197F1F700C00000309BE6CF10922D
:101CD0009402109293028BCFA3E1B0E0E2E7FEE022
:101CE0000C9420176C017F876E87FC011782168287
:101CF000838181FD04C06FC34C855D8504C01E01D6
:101D00000894211C311CF6019381EE85FF8593FD1B
:101D1000859193FF8191FF87EE87882309F457C34C
:101D2000853241F493FD859193FF8191FF87EE8782
:101D3000853259F490E0B6014A8B5B8B0E94C8183B
:101D40004A895B895D874C87D7CF10E0FF2400E08C
:101D50000032B0F48B3269F08C3228F4803251F0CA
:101D6000833271F40BC08D3239F0803349F4016055
:101D70002CC00260046029C0086027C0006125C033
:101D800007FD2EC0282F20532A3098F406FF08C0E4
:101D9000812F880F182F110F110F180F120F15C058
:101DA0008F2D880FF82EFF0CFF0CF80EF20E00623C
:101DB0000CC08E3221F406FD0AC3006406C08C36C6
:101DC00011F4006802C0883659F4EE85FF8593FD52
:101DD000859193FF8191FF87EE87882309F0B8CF23
:101DE000982F9554933018F40061805E06C0982FA8
:101DF0009556933008F09BC10F7E06FF16E06FE307
:101E0000E62EE022853619F4F0E4EF2A07C0863684
:101E100019F420E8E22A02C011111150E7FE06C0B1
:101E20001C3340F4912E939427E00BC0183030F40B
:101E3000212F06C027E03CE3932E03C027E017E0E4
:101E40009924CA0104969D878C87FA01608171816B
:101E500082819381A101092D0E9475175C0169801F
:101E6000262D30E0398B288B60FE03C0388933FF84
:101E700006C0E1FC06C0E2FE06C000E205C00DE2BD
:101E800003C00BE201C000E0888999898C709070D2
:101E90000097C1F1002311F084E001C083E08F15A9
:101EA00058F4F81AE3FC09C080E290E0B6010E9401
:101EB000C818FA94C9F701C0FF24002329F0802F25
:101EC00090E0B6010E94C818888983FD03C00CE623
:101ED00010E00EC008E610E00BC0A114B10409F038
:101EE000805290E0B6010E94C8180F5F1F4F05C0D6
:101EF000AE2CBB2490E1A922BB24F8018491882355
:101F000061F762C2E7FE0EC09A0CF889F4FF04C0C4
:101F10008A81813309F49A94191454F5292D2930B2
:101F200050F52DC0E6FC2BC0812F90E08A159B0553
:101F30004CF03CEFA3163FEFB30624F080E8E82A0C
:101F400001C01150112349F0E2E0F0E0EC0FFD1F59
:101F5000E10FF11D80818033A1F3E7FE10C0912EC7
:101F60009394812F90E0A816B90644F41A1907C07B
:101F70009924939404C098E0992E01C010E0E7FEE4
:101F800007C01A141B043CF495012F5F3F4F05C096
:101F900025E030E002C021E030E0002311F02F5FA7
:101FA0003F4F112329F0812F90E00196280F391F10
:101FB0008F2D90E02817390714F4F21A01C0FF247E
:101FC0004E2C5524C20189709070009749F406C0C8
:101FD00080E290E0B6010E94C818FA94FF20C1F791
:101FE000002329F0802F90E0B6010E94C81843FC1E
:101FF00009C006C080E390E0B6010E94C818FA94B8
:10200000FF20C1F7E7FE46C03501B7FE02C06624D7
:10201000772425010894411C511C46185708420C8E
:10202000531CF501E919F1094F01812F90E00027B8
:102030001127081B190BFFEF6F16FFEF7F0629F41E
:102040008EE290E0B6010E94C818A614B70434F0DE
:10205000861497041CF4F201808101C080E3089487
:10206000610871080894411C511C601671062CF01F
:1020700090E0B6010E94C818DECF6A147B0441F4D8
:102080009A81963320F4953319F4F889F4FF81E3AB
:1020900090E049C08A81813311F02FEE622290E0F6
:1020A000B6010E94C818112389F08EE290E0B601B3
:1020B0000E94C81802E0F101E00FF11D0F5F80815E
:1020C00090E0B6010E94C8181150A9F744FE03C061
:1020D00085E490E002C085E690E0B6010E94C81851
:1020E000B7FC05C0A114B10441F464FE06C0B0946D
:1020F000A194B108B3948DE201C08BE290E0B601E7
:102100000E94C81880E305C08F5FE6EFFFEFAE0EB8
:10211000BF1EFAE0AF16B104BCF790E0B6010E9412
:10212000C818C501C096B6010E94C8184DC18336B3
:1021300031F0833789F0833509F059C022C09A0104
:102140002E5F3F4F3D872C87FA01808189833101C3
:1021500081E0A82EB12C13C09A012E5F3F4F3D871E
:102160002C87FA016080718006FF03C0612F70E048
:1021700002C06FEF7FEFC3010E9473185C010F77FD
:1021800014C09A012E5F3F4F3D872C87FA01608073
:10219000718006FF03C0612F70E002C06FEF7FEF18
:1021A000C3010E9468185C01006803FD1CC006C0E2
:1021B00080E290E0B6010E94C818FA948F2D90E05A
:1021C000A816B906A8F30FC0F30107FD859107FF14
:1021D00081913F0190E0B6010E94C818F110FA9475
:1021E0000894A108B108A114B10471F7EDC08436B8
:1021F00011F0893661F507FF0BC09A012C5F3F4F44
:102200003D872C87FA0160817181828193810CC0A6
:102210009A012E5F3F4F3D872C87FA0160817181C3
:10222000882777FD8095982F0F7697FF08C09095A7
:102230008095709561957F4F8F4F9F4F0068A101EA
:102240002AE030E00E940F19982E921841C085377D
:1022500021F40F7E2AE030E020C0097F8F36A9F0FC
:10226000803720F4883509F0B2C00BC0803721F0E8
:10227000883709F0ACC001C0006104FF09C00460E8
:1022800007C004FF08C0066006C028E030E005C0B3
:1022900020E130E002C020E132E007FF0AC0CA01BD
:1022A00004969D878C87FA01608171818281938178
:1022B00009C0CA0102969D878C87FA0160817181ED
:1022C00080E090E0A1010E940F19982E92180F77DC
:1022D00006FF09C00E7F911630F404FF06C002FD10
:1022E00004C00F7E02C0E92C01C0E12E802F90E0D7
:1022F00004FF0CC0FE01E90DF11D2081203311F413
:10230000097E09C0E39402FF06C004C0867890707D
:10231000009709F0E394A02EBB2403FD14C000FF36
:102320000FC0EF1428F4192D1F0D1E19EF2C08C033
:10233000192D06C080E290E0B6010E94C818E3940F
:10234000EF14C0F304C0EF1410F4FE1801C0FF2412
:10235000A4FE0FC080E390E0B6010E94C818A2FE60
:102360001FC0A1FE03C088E590E010C088E790E0A0
:102370000DC0C50186789070009791F0A1FC02C055
:1023800080E201C08BE207FD8DE290E0B6010E9481
:10239000C81806C080E390E0B6010E94C81811502A
:1023A0009116C0F39A94F101E90DF11D808190E03E
:1023B000B6010E94C8189920A9F706C080E290E0F3
:1023C000B6010E94C818FA94FF20C1F795CCF60117
:1023D0002681378102C02FEF3FEFC9016396E2E10A
:1023E0000C943C1720FD09C0FC0123FD05C022FF11
:1023F00002C073836283518340830895EF92FF92FA
:102400000F931F9344FD10C046FD10C0DB01FC017B
:10241000AA0FBB1FEE1FFF1F1094D1F76A0F7B1F7F
:102420008E1F9F1F31E003C033E001C034E0660F10
:10243000771F881F991F3150D1F77B018C01E20E65
:10244000F11C011D111DA8019701B701CA011F91BF
:102450000F91FF90EF900895EF92FF920F931F93CB
:10246000CF93DF938C01C8010E948618EC0197FD81
:1024700009C00E944D180097B1F77E01CE01B80146
:102480000E94F418CE01CDB7DEB7E6E00C944817F1
:10249000A1E0B0E0EEE4F2E10C9426176C014B01F0
:1024A0005A01122F0E9486188B3219F08D3269F46E
:1024B00010680894810891088114910409F478C087
:1024C000C6010E94861897FD73C0312F3D7F232FD0
:1024D000207331F5803321F5089481089108811427
:1024E000910409F450C0C60139830E9486183981CD
:1024F00097FD49C03260883711F0883579F430642F
:1025000008948108910881149104E9F1C601398386
:102510000E948618398197FF03C035C036FF3061AD
:10252000EE24FF248701282F2053283090F034FD1B
:1025300009C02A3070F036FF05C02F7D422F41516F
:10254000463030F0B60139830E94F418398118C042
:102550002750C801B701432F39830E94FE117B0128
:102560008C013981326008948108910881149104AA
:1025700069F0C60139830E948618398197FFD3CF4D
:1025800031FD04C015C0EE24FF24870137FF08C0C9
:1025900010950095F094E094E11CF11C011D111DB3
:1025A000C501B801A701232F0E94F21181E001C0EB
:1025B00080E02196ECE00C944217A0E2B0E0E3EE5C
:1025C000F2E10C9422175C016B018A0179019E01F2
:1025D0002F5F3F4F80E2F90111928A95E9F7F501EB
:1025E000938080E090E0B0E08824A0E061E070E0BB
:1025F000F70193FC659093FE61907F01662009F4DA
:1026000081C0F62DFE3511F4009751F14A2F50E0AC
:102610004817590744F4462D4D3551F14D3219F400
:10262000882001F103C0882009F4B62D462D469577
:1026300046954695F901E40FF11D462D47702B0193
:1026400002C0440C551C4A95E2F7808084288082A1
:102650006B1659F06B1610F46394E8CF6A94E6CFCA
:10266000A1E004C08824839401C088240196C0CFCF
:10267000882019F08E8180628E83AA2351F0CE01CA
:102680008196FE013196208120952193E817F90764
:10269000D1F7992493943E010894611C711C01C0E8
:1026A0009924C5010E94861897FD24C0282F2695DD
:1026B00026952695F301E20FF11D208130E0AC0153
:1026C0004770507002C0359527954A95E2F720FD76
:1026D00004C0B5010E94F4180DC00115110519F0D0
:1026E000F80181938F010894C108D108C114D10465
:1026F000B9F602C0992031F40115110529F0F8014D
:10270000108202C0EE24FF24C701A096E0E10C94E1
:102710003E172F923F924F925F926F927F928F92CD
:102720009F92AF92BF92CF92DF92FF920F931F932F
:10273000CF93DF935C01EB011A010E9486188C0194
:102740008B3219F08D3279F402C0FF2402C0F0E818
:10275000FF2E219709F4FEC0C5010E9486188C0146
:1027600097FF02C0F7C0FF24C8010E9455188936A0
:102770009105E9F08E36910581F516C0219771F02B
:10278000C5010E9486186C0197FD08C00E9455186B
:10279000881679F0C601B5010E94F41880E0083867
:1027A000180709F0D7C00FC002E810E002C005E822
:1027B00010E0F8010F5F1F4F84908820F9F6E0E0E9
:1027C00005381E0729F060E070E080E89FE7B7C099
:1027D00060E070E080EC9FE7B2C0442455243201F1
:1027E000CC24DD24202F20532A3038F5F2E0FF2AB4
:1027F0004F2D50E0CA0188709070F2FE06C000971D
:1028000011F50894C11CD11C1EC0009719F0089442
:10281000C108D108C301B20140E20E94FE112B01A0
:102820003C0188E9481689E9580689E9680689E182
:10283000780648F0E4E0FE2A06C02E3F61F4F3FC7F
:102840000AC0F8E0FF2A219731F0C5010E948618DE
:102850008C0197FFC7CFF1FE7DC0053611F005341E
:10286000D9F5219709F476C0C5010E9486188C011C
:1028700097FD70C08B3221F08D3249F480E1F82A47
:10288000219709F467C0C5010E9486188C01C80110
:10289000C0978A30910508F05DC088249924B4015E
:1028A000882777FD8095982F202F205340E20E94A3
:1028B000FE114B01219741F0C5010E9486188C0141
:1028C000C0978A30910558F3F4FE04C09094819427
:1028D00091089394C80CD91C209731F017FD04C0BF
:1028E000C801B5010E94F418C301B2010E94EF159E
:1028F000D7FE07C0C1EAD0E0D094C194D108D394E8
:1029000002C0C9EBD0E0E6E0AE2EB12C00E210E050
:1029100009C0FE0125913591459154910E942C16D4
:10292000C01AD10AC016D106A0F7169507950894CB
:10293000A108B108A114B10411F02497F3CFF7FC5A
:1029400090582114310441F0F10160837183828336
:10295000938302C080E001C081E0DF91CF911F919D
:102960000F91FF90DF90CF90BF90AF909F908F908E
:102970007F906F905F904F903F902F900895A1E0CF
:10298000B0E0E5ECF4E10C9422176C015B013A0134
:10299000FC0117821682EE240AC1812F90E00E946A
:1029A0004D18009721F0C6010E942C1200C115326B
:1029B00041F4F50103FD359103FF31915F0135329B
:1029C00061F4C6010E94861897FDFDC0181709F42E
:1029D000EEC0B6010E94F418F8C03A3241F403FD8B
:1029E000359103FF31915F01FF24F39401C0FF246F
:1029F000442455240FC0F2E0FF2AB20180E090E0A9
:102A000040E20E94FE112B01F50103FD359103FF09
:102A100031915F01232F20532A3068F3F1FE04C067
:102A20004114510421F4D1C044244A94542C383622
:102A300019F03C3699F40AC0F50103FD359103FF06
:102A400031915F01383651F4F8E0FF2A44E0F42A6E
:102A5000F50103FD359103FF31915F01332309F443
:102A6000B4C080E790E0632F70E039830E945D1866
:102A70003981009709F4A9C08F2DF0FC08C0F3013B
:102A80000081118142E050E0640E751E02C000E03A
:102A900010E03E3651F4F6014681578160E070E067
:102AA000C8012F2D0E94F21182C03336B9F481FD86
:102AB00003C0A1E04A2E512CC6010E94861897FD42
:102AC00082C00115110519F0F80181938F01089456
:102AD000410851084114510479F767C03B3559F456
:102AE000C601B201A80195010E94DD125C010097A8
:102AF00009F05BC055C0C60139830E942C12398190
:102B000097FD61C03F36E1F1303738F43436A9F132
:102B10003936C1F13835E9F52DC0333751F0343746
:102B200018F43037B1F526C0353739F1383789F523
:102B300021C0C6010E9486184C0197FD15C00E9455
:102B40004D18009729F0C401B6010E94F4180CC07A
:102B50000115110519F0F80181928F0108944108BF
:102B600051084114510429F701151105F1F0F8013C
:102B700010821BC0F0E4FF2A05C040E2F42A02C024
:102B800050E1F52AC601B201A8012F2D0E9448127A
:102B900005C0C601B201A8010E948913882329F447
:102BA000F6018381807379F410C0F0FEE394F6019E
:102BB0000381F50103FD159103FF11915F011123BD
:102BC00009F0EBCE02C0EE2019F02E2D30E002C04D
:102BD0002FEF3FEFC9012196E0E10C943E17E894F6
:102BE00009C097FB3EF490958095709561957F4F55
:102BF0008F4F9F4F9923A9F0F92F96E9BB27939503
:102C0000F695879577956795B795F111F8CFFAF412
:102C1000BB0F11F460FF1BC06F5F7F4F8F4F9F4F43
:102C200016C0882311F096E911C0772321F09EE8A1
:102C3000872F762F05C0662371F096E8862F70E007
:102C400060E02AF09A95660F771F881FDAF7880FE1
:102C50009695879597F908950BD078C069D028F09C
:102C60006ED018F0952309F05AC05FC01124A2C09D
:102C70007ED0A0F3959FD1F3950F50E0551F629F32
:102C8000F001729FBB27F00DB11D639FAA27F00DC5
:102C9000B11DAA1F649F6627B00DA11D661F829FEC
:102CA0002227B00DA11D621F739FB00DA11D621FD1
:102CB000839FA00D611D221F749F3327A00D611DEE
:102CC000231F849F600D211D822F762F6A2F1124D0
:102CD0009F5750408AF0E1F088234AF0EE0FFF1F23
:102CE000BB1F661F771F881F91505040A9F79E3F5A
:102CF000510570F014C05EC05F3FECF3983EDCF30A
:102D0000869577956795B795F795E7959F5FC1F796
:102D1000FE2B880F911D9695879597F9089597F941
:102D20009F6780E870E060E008959FEF80EC089571
:102D300000240A941616170618060906089500249A
:102D40000A9412161306140605060895092E039414
:102D5000000C11F4882352F0BB0F40F4BF2B11F488
:102D600060FF04C06F5F7F4F8F4F9F4F089557FDE7
:102D70009058440F551F59F05F3F71F04795880FE9
:102D800097FB991F61F09F3F79F087950895121680
:102D900013061406551FF2CF4695F1DF08C016162C
:102DA00017061806991FF1CF8695710561050894DD
:102DB0000895E894BB2766277727CB0197F90895F4
:102DC000991B79E004C0991F961708F0961B881F7D
:102DD0007A95C9F78095089587FB082E062687FD0A
:102DE000819567FD6195ECDF0EF4919507FC819567
:102DF0000895AA1BBB1B51E107C0AA1FBB1FA61742
:102E0000B70710F0A61BB70B881F991F5A95A9F793
:102E100080959095BC01CD01089597FB092E07265A
:102E20000AD077FD04D0E5DF06D000201AF47095B3
:102E300061957F4F0895F6F7909581959F4F08957E
:102E40002F923F924F925F926F927F928F929F92BA
:102E5000AF92BF92CF92DF92EF92FF920F931F93A8
:102E6000CF93DF93CDB7DEB7CA1BDB0B0FB6F89459
:102E7000DEBF0FBECDBF09942A88398848885F8499
:102E80006E847D848C849B84AA84B984C884DF800A
:102E9000EE80FD800C811B81AA81B981CE0FD11DEE
:102EA0000FB6F894DEBF0FBECDBFED010895FC0153
:102EB00088279927E89421912032E9F3293010F0EE
:102EC0002E30C8F32B3241F02D3239F4689404C00F
:102ED0000E947E18820F911D219120532A30C0F349
:102EE0001EF4909581959F4F0895283008F027E0B3
:102EF0003327DA01990F311D87FD91600096610536
:102F0000710539F432602E5F3D9330E32A95E1F785
:102F100008959F3F30F080387105610509F03C5FEE
:102F20003C5F3D93913008F08068911DDF93CF9313
:102F30001F930F93FF92EF92192F987F9695E92F89
:102F400096959695E90FFF27EE50FD4F9927332769
:102F5000EE24FF24A701E70105900894079428F4C4
:102F6000360FE71EF81E491F511D660F771F881F79
:102F7000991F0694A1F70590079428F4E70EF81E10
:102F8000491F561FC11D770F881F991F661F069482
:102F9000A1F70590079428F4F80E491F561FC71F84
:102FA000D11D880F991F661F771F0694A1F7059002
:102FB000079420F4490F561FC71FD81F990F661F8B
:102FC000771F881F0694A9F784911095177041F018
:102FD000D695C79557954795F794E7941A95C1F7F5
:102FE000E8E9F2E068941590159135916591959115
:102FF00005907FE27395E118F10A430B560BC90B5C
:10300000D009C0F7E10CF11E431F561FC91FD01D88
:103010007EF4703311F48A95E6CFE894015030F0D5
:10302000080F0AF40027021708F4202F2395022F17
:103030007A3328F079E37D932A95E9F710C07D93E0
:103040002A9589F60694979567953795179517945D
:10305000E118F10A430B560BC90BD00998F02395E0
:103060007E9173957A3308F070E37C932013B8F760
:103070007E9170617D9330F0839571E37D9370E371
:103080002A95E1F71124EF90FF900F911F91CF91B6
:10309000DF91992787FD9095089591111EC1803287
:1030A00019F089508550D0F70895911108958154F1
:1030B0008A5108F4805E855A0895FC010590061631
:1030C00021F00020D9F7C00108953197CF0108956C
:1030D000FC010590615070400110D8F780959095E3
:1030E0008E0F9F1F0895FC016150704001900110E8
:1030F000D8F7809590958E0F9F1F08957AE0979F3F
:10310000902D879F802D910D11240895CF93DF93EB
:10311000EC013B8130FF36C036FF09C03F7B3B836B
:103120008E819F8101969F838E832A8129C032FFE1
:103130000FC0E881F9818081992787FD90950097DC
:1031400019F430623B831EC03196F983E88311C0C5
:10315000EA85FB85CE01099597FF0BC02B813FEFD8
:103160008F3F930711F480E101C080E2822B8B83B3
:1031700009C02E813F812F5F3F4F3F832E83282F31
:1031800030E002C02FEF3FEFC901DF91CF910895EA
:103190000F931F93CF93DF938C01EB018B8181FF02
:1031A0001BC082FF0DC02E813F818C819D8128171D
:1031B000390764F4E881F9810193F983E88306C053
:1031C000E885F985802F0995009731F48E819F81DC
:1031D00001969F838E8302C00FEF1FEFC801DF911E
:1031E000CF911F910F910895FB01238120FF13C000
:1031F00026FD11C03FEF8F3F930769F08283206463
:103200002F7D2383268137812150304037832683C9
:10321000282F30E002C02FEF3FEFC9010895FA01D7
:10322000AA27283051F1203181F1E8946F936E7F05
:103230006E5F7F4F8F4F9F4FAF4FB1E03ED0B4E0F6
:103240003CD0670F781F891F9A1FA11D680F791F37
:103250008A1F911DA11D6A0F711D811D911DA11D48
:1032600020D009F468943F912AE0269F1124301958
:10327000305D3193DEF6CF010895462F4770405DF3
:103280004193B3E00FD0C9F7F6CF462F4F70405DA2
:103290004A3318F0495D31FD4052419302D0A9F7FD
:1032A000EACFB4E0A6959795879577956795BA95F7
:1032B000C9F700976105710508959B01AC010A2EBD
:1032C00006945795479537952795BA95C9F7620F94
:1032D000731F841F951FA01D08959927882708959F
:0432E000F894FFCF90
:0432E400FF010000E6
:00000001FF
